010010101ANTIOQUIA   MEDELLIN                      SEC. ESC. LA ESPERANZA NO 2             1000018280000240500000701COMUNA 1 POPULAR              
010010102ANTIOQUIA   MEDELLIN                      INST.EDUC. LA CANDELARIA                1000029120000265800000901COMUNA 1 POPULAR              
010010103ANTIOQUIA   MEDELLIN                      IE.MARIA DE LOS ANGELES CANO MARQUEZ    1000013200000129600000401COMUNA 1 POPULAR              
010010104ANTIOQUIA   MEDELLIN                      SEC. ESC. MEDELLIN                      1000011920000118900000401COMUNA 1 POPULAR              
010010105ANTIOQUIA   MEDELLIN                      I.E.FE Y ALEGRIA GRANIZAL               1000012010000113800000401COMUNA 1 POPULAR              
010010106ANTIOQUIA   MEDELLIN                      IE LA AVANZADA                          1000005570000054600000201COMUNA 1 POPULAR              
010010107ANTIOQUIA   MEDELLIN                      SEC. ESC. CARPINELO AMAPOLITA           1000004840000049300000201COMUNA 1 POPULAR              
010010108ANTIOQUIA   MEDELLIN                      IE ANTONIO DERKA                        1000012400000122100000401COMUNA 1 POPULAR              
010010201ANTIOQUIA   MEDELLIN                      SEC.ESC. PAULO VI                       1000015120000723300001301COMUNA 1 POPULAR              
010010202ANTIOQUIA   MEDELLIN                      SEC. ESC. DIVINA PROVIDENCIA            1000063140000117800001101COMUNA 1 POPULAR              
010010203ANTIOQUIA   MEDELLIN                      SEC.ESC.AGRIPINA MONTES DEL VALLE       1000003960000041200000201COMUNA 1 POPULAR              
010010204ANTIOQUIA   MEDELLIN                      I.E.FEDERICO CARRASQUILLA               1000010000000101000000301COMUNA 1 POPULAR              
010010205ANTIOQUIA   MEDELLIN                      I.E.GUADALUPE                           1000012970000125200000401COMUNA 1 POPULAR              
010010301ANTIOQUIA   MEDELLIN                      I.E.  ASIA IGNACIANA                    1000015450000154400000502COMUNA 2 SANTA CRUZ           
010010302ANTIOQUIA   MEDELLIN                      SEC.ESC.  MANUEL URIBE ANGEL            1000021720000201600000702COMUNA 2 SANTA CRUZ           
010010303ANTIOQUIA   MEDELLIN                      SEC.ESC. REPUB. DE NICARAGUA            1000010440000102200000302COMUNA 2 SANTA CRUZ           
010010304ANTIOQUIA   MEDELLIN                      I.E.FE Y ALEGRIA J.MARIA VELAZ          1000007640000069800000302COMUNA 2 SANTA CRUZ           
010010401ANTIOQUIA   MEDELLIN                      I.E. BARRIO SANTA CRUZ                  1000017320000167000000502COMUNA 2 SANTA CRUZ           
010010402ANTIOQUIA   MEDELLIN                      SEC. ESC. ARZOBISPO GARCIA              1000010200000096700000302COMUNA 2 SANTA CRUZ           
010010403ANTIOQUIA   MEDELLIN                      I.E. REPUBLICA DE HONDURAS              1000012610000125100000402COMUNA 2 SANTA CRUZ           
010010501ANTIOQUIA   MEDELLIN                      I.E. REPUBLICA DE BARBADOS              1000022770000221100000703COMUNA 3 MANRIQUE             
010010502ANTIOQUIA   MEDELLIN                      IE LAS NIEVES                           1000014430000142700000503COMUNA 3 MANRIQUE             
010010503ANTIOQUIA   MEDELLIN                      I.E. MANUELA BELTRAN                    1000026460000257400000803COMUNA 3 MANRIQUE             
010010504ANTIOQUIA   MEDELLIN                      SEC.ESC.SAN JOSE I.E. MAN BEL           1000021480000202900000703COMUNA 3 MANRIQUE             
010010505ANTIOQUIA   MEDELLIN                      I.E.RAMON MUNERA LOPERA                 1000010550000097800000303COMUNA 3 MANRIQUE             
010010506ANTIOQUIA   MEDELLIN                      IE BELLO ORIENTE                        1000004940000052900000203COMUNA 3 MANRIQUE             
010010507ANTIOQUIA   MEDELLIN                      IE JOSE ROBERTO VASQUEZ                 1000006360000057600000203COMUNA 3 MANRIQUE             
010010601ANTIOQUIA   MEDELLIN                      I.E. JOSE ANTONIO GALAN                 1000015780000155900000503COMUNA 3 MANRIQUE             
010010602ANTIOQUIA   MEDELLIN                      I.E. HERNAN TORO AGUDELO                1000019240000172200000603COMUNA 3 MANRIQUE             
010010603ANTIOQUIA   MEDELLIN                      SEC ESC SUSANA DIAZ IE RODRIGO L BONILLA1000015360000146200000503COMUNA 3 MANRIQUE             
010010604ANTIOQUIA   MEDELLIN                      IE SAN JUAN BAUTISTA DE LA SALLE        1000007300000069900000303COMUNA 3 MANRIQUE             
010010701ANTIOQUIA   MEDELLIN                      COL AGUSTINIANO DE SAN NICOLAS          1000016060000144900000504COMUNA 4 ARANJUEZ             
010010702ANTIOQUIA   MEDELLIN                      I.E. MONSEÑOR FCO. CRISTOBAL T          1000016750000165600000504COMUNA 4 ARANJUEZ             
010010703ANTIOQUIA   MEDELLIN                      I.E. GILBERTO ALZATE AVENDAÑO           1000024470000248500000804COMUNA 4 ARANJUEZ             
010010704ANTIOQUIA   MEDELLIN                      I.E. CAMPO VALDES                       1000017910000177800000604COMUNA 4 ARANJUEZ             
010010705ANTIOQUIA   MEDELLIN                      I.E.SAN JUAN BOSCO                      1000005740000048100000204COMUNA 4 ARANJUEZ             
010010801ANTIOQUIA   MEDELLIN                      I.E. ALFONSO MORA NARANJO               1000012180000113300000404COMUNA 4 ARANJUEZ             
010010802ANTIOQUIA   MEDELLIN                      I.E. JOSE MARIA BRAVO MARQUEZ           1000011810000122900000404COMUNA 4 ARANJUEZ             
010010803ANTIOQUIA   MEDELLIN                      I.E. FRANCISCO MIRANDA                  1000016050000156400000504COMUNA 4 ARANJUEZ             
010010804ANTIOQUIA   MEDELLIN                      I.E. JAVIERA LONDOÑO                    1000019060000202700000604COMUNA 4 ARANJUEZ             
010010805ANTIOQUIA   MEDELLIN                      I.E. EL BOSQUE                          1000014970000147900000504COMUNA 4 ARANJUEZ             
010010806ANTIOQUIA   MEDELLIN                      SEC ESC JULIO ARBOLEDA                  1000005660000056200000204COMUNA 4 ARANJUEZ             
010010901ANTIOQUIA   MEDELLIN                      I.E. JULIO CESAR GARCIA                 1000013240000136000000405COMUNA 5 CASTILLA             
010010902ANTIOQUIA   MEDELLIN                      SEC. ESC. EDUARDO URIBE BOTERO          1000010280000089600000305COMUNA 5 CASTILLA             
010010903ANTIOQUIA   MEDELLIN                      I.E. PBRO. ANTONIO JOSE BERNAL          1000036450000363200001105COMUNA 5 CASTILLA             
010010904ANTIOQUIA   MEDELLIN                      I.E.SEBASTIAN DE BELALCAZAR             1000007910000078600000305COMUNA 5 CASTILLA             
010010905ANTIOQUIA   MEDELLIN                      SEC ESC TRICENTENARIO                   1000018980000168600000605COMUNA 5 CASTILLA             
010010906ANTIOQUIA   MEDELLIN                      SEC ESC TOSCANA                         1000006100000058200000205COMUNA 5 CASTILLA             
010011001ANTIOQUIA   MEDELLIN                      I.E. MARIA MONTESSORI                   1000015970000135300000505COMUNA 5 CASTILLA             
010011002ANTIOQUIA   MEDELLIN                      ITM CASTILLA                            1000024740000233500000705COMUNA 5 CASTILLA             
010011003ANTIOQUIA   MEDELLIN                      I.E. DINAMARCA                          1000012230000120900000405COMUNA 5 CASTILLA             
010011004ANTIOQUIA   MEDELLIN                      I.E. REPUBLICA DE URUGUAY               1000016770000161000000505COMUNA 5 CASTILLA             
010011005ANTIOQUIA   MEDELLIN                      IE FELIX DE BEDOUT MORENO               1000007870000075600000305COMUNA 5 CASTILLA             
010011101ANTIOQUIA   MEDELLIN                      I.E. CIUDADELA LAS AMERICAS             1000018500000180000000606COMUNA 6 DOCE DE OCTUBRE      
010011102ANTIOQUIA   MEDELLIN                      I.E. PROGRESAR                          1000013410000134000000406COMUNA 6 DOCE DE OCTUBRE      
010011103ANTIOQUIA   MEDELLIN                      SEC. ESC. LEON DE GREIFF                1000009000000084400000306COMUNA 6 DOCE DE OCTUBRE      
010011104ANTIOQUIA   MEDELLIN                      I.E. DOCE DE OCTUBRE                    1000003540000037200000206COMUNA 6 DOCE DE OCTUBRE      
010011105ANTIOQUIA   MEDELLIN                      CASD JOSE MARIA ESPINOSA PRIETO         1000007250000070900000306COMUNA 6 DOCE DE OCTUBRE      
010011106ANTIOQUIA   MEDELLIN                      I.E. EL TRIUNFO SANTA TERESA            1000007590000077300000306COMUNA 6 DOCE DE OCTUBRE      
010011107ANTIOQUIA   MEDELLIN                      IE SANTA JUANA DE LESTONACC             1000020960000193700000606COMUNA 6 DOCE DE OCTUBRE      
010011108ANTIOQUIA   MEDELLIN                      IE JESUS MARIA VALLE JARAMILLO          1000007950000078200000306COMUNA 6 DOCE DE OCTUBRE      
010011201ANTIOQUIA   MEDELLIN                      I.E.MAESTRO FERNANDO BOTERO             1000011100000100200000406COMUNA 6 DOCE DE OCTUBRE      
010011202ANTIOQUIA   MEDELLIN                      I.E.ALFREDO COCK ARANGO                 1000010770000106900000406COMUNA 6 DOCE DE OCTUBRE      
010011203ANTIOQUIA   MEDELLIN                      SEC.ESC.SAN MARTIN DE PORRES            1000007280000067000000306COMUNA 6 DOCE DE OCTUBRE      
010011204ANTIOQUIA   MEDELLIN                      I.E. KENNEDY                            1000009200000082500000306COMUNA 6 DOCE DE OCTUBRE      
010011205ANTIOQUIA   MEDELLIN                      SEC.CONCENTRACION EDUC.KENNEDY          1000016370000152200000506COMUNA 6 DOCE DE OCTUBRE      
010011206ANTIOQUIA   MEDELLIN                      I.E.JORGE ELIECER GAITAN(PPAL)          1000006620000058400000206COMUNA 6 DOCE DE OCTUBRE      
010011207ANTIOQUIA   MEDELLIN                      SE. ESC. PEDREGAL                       1000016640000164000000506COMUNA 6 DOCE DE OCTUBRE      
010011208ANTIOQUIA   MEDELLIN                      I.E.LA ESPERANZA                        1000005910000054900000206COMUNA 6 DOCE DE OCTUBRE      
010011301ANTIOQUIA   MEDELLIN                      I.E. SAN VICENTE DE PAUL                1000012580000122700000407COMUNA 7 ROBLEDO              
010011302ANTIOQUIA   MEDELLIN                      SEC.ESC. EL DIAMANTE                    1000010140000096600000307COMUNA 7 ROBLEDO              
010011303ANTIOQUIA   MEDELLIN                      I.E.EL DIAMANTE (SEDE BTO)              1000018360000181700000607COMUNA 7 ROBLEDO              
010011304ANTIOQUIA   MEDELLIN                      I.E.FE Y ALEGRIA VILLA DE LA C          1000015660000162900000507COMUNA 7 ROBLEDO              
010011305ANTIOQUIA   MEDELLIN                      I.E.FE Y ALEGRIA SAN JOSE               1000010460000096900000307COMUNA 7 ROBLEDO              
010011306ANTIOQUIA   MEDELLIN                      TECNOLOGICO DE ANTIOQUIA                1000016210000142900000507COMUNA 7 ROBLEDO              
010011307ANTIOQUIA   MEDELLIN                      IE JESUS REY                            1000008670000080500000307COMUNA 7 ROBLEDO              
010011308ANTIOQUIA   MEDELLIN                      IE AURES                                1000007790000078700000307COMUNA 7 ROBLEDO              
010011401ANTIOQUIA   MEDELLIN                      I.E.MON. GERARDO VALENCIA CAN           1000010170000099900000307COMUNA 7 ROBLEDO              
010011402ANTIOQUIA   MEDELLIN                      I.E. JORGE ROBLEDO                      1000016710000171700000507COMUNA 7 ROBLEDO              
010011403ANTIOQUIA   MEDELLIN                      I.E.MARISCAL ROBLEDO                    1000018840000222300000607COMUNA 7 ROBLEDO              
010011404ANTIOQUIA   MEDELLIN                      SEC.ESC. SANTA MARGARITA                1000011290000114400000407COMUNA 7 ROBLEDO              
010011405ANTIOQUIA   MEDELLIN                      COLEGIO FERRINI                         1000022070000231500000707COMUNA 7 ROBLEDO              
010011406ANTIOQUIA   MEDELLIN                      I.E.CAMILO MORA CARRASQUILLA            1000009990000095400000307COMUNA 7 ROBLEDO              
010011407ANTIOQUIA   MEDELLIN                      COL MAYOR DE ANTIOQUIA                  1000007470000065700000307COMUNA 7 ROBLEDO              
010011408ANTIOQUIA   MEDELLIN                      IE BARRIO OLAYA HERRERA                 1000006290000053100000207COMUNA 7 ROBLEDO              
010011501ANTIOQUIA   MEDELLIN                      I.E. JUAN DE DIOS CARVAJAL              1000017320000175600000608COMUNA 8 VILLA HERMOSA        
010011502ANTIOQUIA   MEDELLIN                      I.E. JUAN DE LA CRUZ POSADA             1000007420000073000000308COMUNA 8 VILLA HERMOSA        
010011503ANTIOQUIA   MEDELLIN                      I.E.JOSE CELESTINO MUTIS                1000008490000084000000308COMUNA 8 VILLA HERMOSA        
010011504ANTIOQUIA   MEDELLIN                      INST.METROPOLITANO (I.T.M)              1000006380000066300000208COMUNA 8 VILLA HERMOSA        
010011505ANTIOQUIA   MEDELLIN                      SEC.ESC.JULIA AGUDELO                   1000028080000249900000808COMUNA 8 VILLA HERMOSA        
010011506ANTIOQUIA   MEDELLIN                      SEC.ESC.NIÑO JESUS DE PRAGA             1000008220000070400000308COMUNA 8 VILLA HERMOSA        
010011507ANTIOQUIA   MEDELLIN                      I.E.SOL DEL ORIENTE                     1000009650000103000000308COMUNA 8 VILLA HERMOSA        
010011508ANTIOQUIA   MEDELLIN                      IE LUIS CARLOS GALAN SARMIENTO PPAL     1000009530000091300000308COMUNA 8 VILLA HERMOSA        
010011601ANTIOQUIA   MEDELLIN                      I.E. VILLA TURBAY                       1000009480000088400000308COMUNA 8 VILLA HERMOSA        
010011602ANTIOQUIA   MEDELLIN                      SEC.ESCUELA LAS ESTANCIAS               1000007190000067300000208COMUNA 8 VILLA HERMOSA        
010011603ANTIOQUIA   MEDELLIN                      SEC.ESC.SOR MARIA LUISA COURB           1000007690000070800000308COMUNA 8 VILLA HERMOSA        
010011604ANTIOQUIA   MEDELLIN                      I.E. SAN FRANCISCO DE ASIS              1000012100000112000000408COMUNA 8 VILLA HERMOSA        
010011605ANTIOQUIA   MEDELLIN                      IE FELIX HENAO BOTERO                   1000008550000079200000308COMUNA 8 VILLA HERMOSA        
010011701ANTIOQUIA   MEDELLIN                      I.E.GUADALUPANO LA SALLE                1000015840000158800000509COMUNA 9 BUENOS AIRES         
010011702ANTIOQUIA   MEDELLIN                      I.E. MERCEDITAS GOMEZ MARTINE           1000015090000147600000509COMUNA 9 BUENOS AIRES         
010011703ANTIOQUIA   MEDELLIN                      I.E. MANUEL JOSE CAICEDO                1000022420000205100000709COMUNA 9 BUENOS AIRES         
010011704ANTIOQUIA   MEDELLIN                      I.E. LA MILAGROSA                       1000025000000228100000709COMUNA 9 BUENOS AIRES         
010011705ANTIOQUIA   MEDELLIN                      COLEGIO EUCARISTICO                     1000008610000086100000309COMUNA 9 BUENOS AIRES         
010011706ANTIOQUIA   MEDELLIN                      SENA SD BUENOS AIRES                    1000004420000046600000209COMUNA 9 BUENOS AIRES         
010011801ANTIOQUIA   MEDELLIN                      I.E. LORETO GABRIELA GOMEZ CA           1000012080000118600000409COMUNA 9 BUENOS AIRES         
010011802ANTIOQUIA   MEDELLIN                      I.E.  FEDERICO OZANA                    1000018790000196400000609COMUNA 9 BUENOS AIRES         
010011803ANTIOQUIA   MEDELLIN                      ESCUELA NORMAL SUPERIOR ANT.            1000012670000106000000409COMUNA 9 BUENOS AIRES         
010011804ANTIOQUIA   MEDELLIN                      SEC. ESC. JOSE DE SAN MARTIN            1000017880000168300000509COMUNA 9 BUENOS AIRES         
010011805ANTIOQUIA   MEDELLIN                      SEC. ESC. JUAN CANCIO RESTREPO          1000005480000047700000209COMUNA 9 BUENOS AIRES         
010011901ANTIOQUIA   MEDELLIN                      I.E. TULIO OSPINA                       1000010380000103000000310COMUNA 10 LA CANDELARIA       
010011902ANTIOQUIA   MEDELLIN                      SEC.ESC.AGUSTIN NIETO CABALLE           1000004280000044000000210COMUNA 10 LA CANDELARIA       
010011903ANTIOQUIA   MEDELLIN                      COLEGIO SALESIANO EL SUFRAGIO           1000013780000132300000410COMUNA 10 LA CANDELARIA       
010011904ANTIOQUIA   MEDELLIN                      I.E. CEFA                               1000016930000129900000510COMUNA 10 LA CANDELARIA       
010011905ANTIOQUIA   MEDELLIN                      I.E. HECTOR ABAD GOMEZ                  1000009650000097700000310COMUNA 10 LA CANDELARIA       
010011906ANTIOQUIA   MEDELLIN                      IE JAVIER A LONDOÑO                     1000005210000050100000210COMUNA 10 LA CANDELARIA       
010011907ANTIOQUIA   MEDELLIN                      I.T.M. (PRADO CENTRO)                   1000005420000052600000210COMUNA 10 LA CANDELARIA       
010012001ANTIOQUIA   MEDELLIN                      CENTRO COMERCIAL SAN DIEGO              1000015600000139500000510COMUNA 10 LA CANDELARIA       
010012002ANTIOQUIA   MEDELLIN                      ALCALDIA MUNICIPAL (SOTANO)             1000007710000083500000310COMUNA 10 LA CANDELARIA       
010012003ANTIOQUIA   MEDELLIN                      SENA                                    1000005990000064900000210COMUNA 10 LA CANDELARIA       
010012004ANTIOQUIA   MEDELLIN                      UNIVERSIDAD CLARETIANA                  1000005140000056400000210COMUNA 10 LA CANDELARIA       
010012101ANTIOQUIA   MEDELLIN                      INSTITUTO JORGE ROBLEDO                 1000008510000094600000311COMUNA 11 LAURELES            
010012102ANTIOQUIA   MEDELLIN                      INST.EDUC. MATER DEI                    1000010630000099000000311COMUNA 11 LAURELES            
010012103ANTIOQUIA   MEDELLIN                      I.E. MARCO FIDEL SUAREZ                 1000013440000142000000411COMUNA 11 LAURELES            
010012104ANTIOQUIA   MEDELLIN                      COLEGIO CALASANZ FEMENINO               1000015230000136800000511COMUNA 11 LAURELES            
010012105ANTIOQUIA   MEDELLIN                      COL SAN IGNACIO SD MAYORES              1000005020000052400000211COMUNA 11 LAURELES            
010012106ANTIOQUIA   MEDELLIN                      SEC. ESC. CARLOS OBANDO VELASCO         1000003810000039500000211COMUNA 11 LAURELES            
010012201ANTIOQUIA   MEDELLIN                      SEC.ESC. AGRUPACION COLOMBIA            1000009100000090600000311COMUNA 11 LAURELES            
010012202ANTIOQUIA   MEDELLIN                      I.E. LUCRECIO JARAMILLO VELEZ           1000012840000131600000411COMUNA 11 LAURELES            
010012203ANTIOQUIA   MEDELLIN                      COLEGIO BETLEHEMITAS                    1000010230000092400000311COMUNA 11 LAURELES            
010012204ANTIOQUIA   MEDELLIN                      COL.SAN IGNACIO (SEC.INFANTIL)          1000006980000071400000311COMUNA 11 LAURELES            
010012205ANTIOQUIA   MEDELLIN                      UNIVERSIDAD ADVENTISTA                  1000005710000060900000211COMUNA 11 LAURELES            
010012206ANTIOQUIA   MEDELLIN                      UNIVERSIDAD PONTIFICIA BOLIVARIANA      1000007790000086500000311COMUNA 11 LAURELES            
010012301ANTIOQUIA   MEDELLIN                      SEC. ESC. SANTA LUCIA                   1000012680000111300000412COMUNA 12 LA AMERICA          
010012302ANTIOQUIA   MEDELLIN                      I.E. CONCEJO DE MEDELLIN                1000018500000194400000612COMUNA 12 LA AMERICA          
010012303ANTIOQUIA   MEDELLIN                      I.E. LA PIEDAD                          1000016120000156100000512COMUNA 12 LA AMERICA          
010012304ANTIOQUIA   MEDELLIN                      I.E.SANTA ROSA DE LIMA                  1000008630000088100000312COMUNA 12 LA AMERICA          
010012305ANTIOQUIA   MEDELLIN                      IE LOLA GONZALEZ                        1000007000000064500000212COMUNA 12 LA AMERICA          
010012401ANTIOQUIA   MEDELLIN                      I.E. RAFAEL URIBE URIBE                 1000007600000086300000312COMUNA 12 LA AMERICA          
010012402ANTIOQUIA   MEDELLIN                      SEC.ESC.RAFAEL URIBE URIBE              1000010780000116100000412COMUNA 12 LA AMERICA          
010012403ANTIOQUIA   MEDELLIN                      SEC. ESC. PEDRO DE CASTRO               1000010110000105800000312COMUNA 12 LA AMERICA          
010012404ANTIOQUIA   MEDELLIN                      I.E.FRANCISCO ANTONIO ZEA               1000008980000092700000312COMUNA 12 LA AMERICA          
010012405ANTIOQUIA   MEDELLIN                      I.E AMERICA                             1000007190000070500000312COMUNA 12 LA AMERICA          
010012406ANTIOQUIA   MEDELLIN                      I.E.SAMUEL BARRIENTOS                   1000005980000057100000212COMUNA 12 LA AMERICA          
010012407ANTIOQUIA   MEDELLIN                      LICEO SALAZAR Y HERRERA                 1000006850000064700000212COMUNA 12 LA AMERICA          
010012501ANTIOQUIA   MEDELLIN                      I.E. BLANQUIZAL                         1000018050000170800000613COMUNA 13 SAN JAVIER          
010012502ANTIOQUIA   MEDELLIN                      SEC. ESC. REPUBLICA DE PANAMA           1000006970000065700000213COMUNA 13 SAN JAVIER          
010012503ANTIOQUIA   MEDELLIN                      I.E JUAN XXIII                          1000013110000119400000413COMUNA 13 SAN JAVIER          
010012504ANTIOQUIA   MEDELLIN                      SEC. ESC. MONSEÑOR PERDOMO              1000014350000111700000413COMUNA 13 SAN JAVIER          
010012505ANTIOQUIA   MEDELLIN                      SEC.ESC.PIO XII                         1000012760000136700000413COMUNA 13 SAN JAVIER          
010012506ANTIOQUIA   MEDELLIN                      I.E.STELLA VELEZ LONDOÑO                1000008190000067100000313COMUNA 13 SAN JAVIER          
010012601ANTIOQUIA   MEDELLIN                      I.E.LA INDEPENDENCIA                    1000019630000178600000613COMUNA 13 SAN JAVIER          
010012602ANTIOQUIA   MEDELLIN                      SEC.ESC.EL SOCORRO                      1000018110000170200000613COMUNA 13 SAN JAVIER          
010012603ANTIOQUIA   MEDELLIN                      SEC.ESC.MIXTA BETANIA                   1000014920000136100000513COMUNA 13 SAN JAVIER          
010012604ANTIOQUIA   MEDELLIN                      I.E.EL CORAZON                          1000009570000088500000313COMUNA 13 SAN JAVIER          
010012605ANTIOQUIA   MEDELLIN                      I.E.EDUARDO SANTOS                      1000008740000080700000313COMUNA 13 SAN JAVIER          
010012606ANTIOQUIA   MEDELLIN                      I.E.CARLOS VIECO                        1000014710000136800000513COMUNA 13 SAN JAVIER          
010012607ANTIOQUIA   MEDELLIN                      SEDE AMOR AL NIÑO                       1000009820000094000000313COMUNA 13 SAN JAVIER          
010012701ANTIOQUIA   MEDELLIN                      COL.SANTA MARIA DEL ROSARIO             1000008700000081200000314COMUNA 14 EL POBLADO          
010012702ANTIOQUIA   MEDELLIN                      COL.MARYMOUNT                           1000014730000128300000414COMUNA 14 EL POBLADO          
010012703ANTIOQUIA   MEDELLIN                      COLEGIO SAN LUCAS                       1000004010000044300000214COMUNA 14 EL POBLADO          
010012704ANTIOQUIA   MEDELLIN                      ESC GUILLERMO ECHAVARRIA MISAS          1000005040000044300000214COMUNA 14 EL POBLADO          
010012801ANTIOQUIA   MEDELLIN                      POLITECNICO JAIME ISAZA CADAVI          1000009240000092500000314COMUNA 14 EL POBLADO          
010012802ANTIOQUIA   MEDELLIN                      INEM JOSE FELIX DE RESTREP              1000010230000102600000314COMUNA 14 EL POBLADO          
010012803ANTIOQUIA   MEDELLIN                      UNIVERSIDAD EAFIT                       1000016500000168200000514COMUNA 14 EL POBLADO          
010012804ANTIOQUIA   MEDELLIN                      COL DE LA CIA DE MARIA LA ENSE          1000005590000046100000214COMUNA 14 EL POBLADO          
010012805ANTIOQUIA   MEDELLIN                      SAN JOSE DE LAS VEGAS                   1000011710000102300000414COMUNA 14 EL POBLADO          
010012901ANTIOQUIA   MEDELLIN                      SEC.ESC.SANTISIMA TRINIDAD              1000009570000089600000315COMUNA 15 GUAYABAL            
010012902ANTIOQUIA   MEDELLIN                      I.E.BENJAMIN HERRERA                    1000008110000078300000315COMUNA 15 GUAYABAL            
010012903ANTIOQUIA   MEDELLIN                      I.E.CRISTO REY                          1000012220000115400000415COMUNA 15 GUAYABAL            
010012904ANTIOQUIA   MEDELLIN                      SECCION ESC REPUBLICA DE COSTA RICA     1000007620000074100000315COMUNA 15 GUAYABAL            
010012905ANTIOQUIA   MEDELLIN                      SEC.ESC.LA COLINA                       1000007890000073500000315COMUNA 15 GUAYABAL            
010012906ANTIOQUIA   MEDELLIN                      I.E. LA SALLE CAMPO AMOR                1000008030000078500000315COMUNA 15 GUAYABAL            
010012907ANTIOQUIA   MEDELLIN                      SEC ESC CRISTO REY APOLO                1000004970000046200000215COMUNA 15 GUAYABAL            
010013001ANTIOQUIA   MEDELLIN                      I.E. FATIMA NUTIBARA                    1000008880000088600000316COMUNA 16 BELEN               
010013002ANTIOQUIA   MEDELLIN                      ESC.SOFIA OSPINA DE NAVARRO             1000003840000039400000216COMUNA 16 BELEN               
010013003ANTIOQUIA   MEDELLIN                      I.E.JUAN MARIA CESPEDES                 1000013680000130400000416COMUNA 16 BELEN               
010013004ANTIOQUIA   MEDELLIN                      I.E. GUILLERMO VALENCIA                 1000014410000134000000416COMUNA 16 BELEN               
010013005ANTIOQUIA   MEDELLIN                      UNID.DEPORTIVA ANDRES ESCOBAR           1000006020000064600000216COMUNA 16 BELEN               
010013006ANTIOQUIA   MEDELLIN                      LICEO SAN RAFAEL                        1000009860000088400000316COMUNA 16 BELEN               
010013007ANTIOQUIA   MEDELLIN                      COLEGIO SAN JUAN BOSCO                  1000003720000034600000216COMUNA 16 BELEN               
010013101ANTIOQUIA   MEDELLIN                      SEC.ESC.JACKELINE KENNEDY               1000007350000074300000316COMUNA 16 BELEN               
010013102ANTIOQUIA   MEDELLIN                      I.E.JOSE MARIA BERNAL                   1000010170000099300000316COMUNA 16 BELEN               
010013103ANTIOQUIA   MEDELLIN                      INST.SAN CARLOS DE LA SALLE             1000018250000172400000616COMUNA 16 BELEN               
010013104ANTIOQUIA   MEDELLIN                      I.E.ALCALDIA DE MEDELLIN                1000016710000153300000516COMUNA 16 BELEN               
010013105ANTIOQUIA   MEDELLIN                      COLEGIO PADRE MANYANET                  1000012230000122800000416COMUNA 16 BELEN               
010013106ANTIOQUIA   MEDELLIN                      I.E.CAMPILLAS DEL ROSARIO               1000005610000050600000216COMUNA 16 BELEN               
010013107ANTIOQUIA   MEDELLIN                      IE ANTONIO RICAURTE                     1000007600000069000000316COMUNA 16 BELEN               
010013201ANTIOQUIA   MEDELLIN                      I.E.RAMON GIRALDO CEBALLOS              1000014160000134800000416COMUNA 16 BELEN               
010013202ANTIOQUIA   MEDELLIN                      UNIVERSIDAD DE MEDELLIN                 1000024490000232700000716COMUNA 16 BELEN               
010013203ANTIOQUIA   MEDELLIN                      I.E HORACIO MUÑOZ SUESCUN               1000009020000092400000316COMUNA 16 BELEN               
010013204ANTIOQUIA   MEDELLIN                      I.E.REPUBLICA DE VENEZUELA              1000010290000104400000316COMUNA 16 BELEN               
010013205ANTIOQUIA   MEDELLIN                      I. E. SAN ROBERTO BELARMINO             1000004880000053000000216COMUNA 16 BELEN               
010013206ANTIOQUIA   MEDELLIN                      INSTITUTO PEDRO JUSTO BERRIO            1000003320000034000000116COMUNA 16 BELEN               
010019701ANTIOQUIA   MEDELLIN                      CENTRO CARLOS LLERAS                    10000000000000028000001                                
010019702ANTIOQUIA   MEDELLIN                      LA ACOGIDA - IPSICOL                    10000000000000023000001                                
010019703ANTIOQUIA   MEDELLIN                      FUNDACIÓN CLARET                        10000002500000000000001                                
010019801ANTIOQUIA   MEDELLIN                      RECLU. DE MUJERES PEDREGAL ME           10000001100000006000001                                
010019802ANTIOQUIA   MEDELLIN                      ESTAB. CARCELARIO PEDREGAL ME           10000000300000025000001                                
010019803ANTIOQUIA   MEDELLIN                      CENTRO CARLOS LLERAS RESTREPO           10000003700000234000001                                
010019903ANTIOQUIA   MEDELLIN                      I.E. DEBORA ARANGO PEREZ                0000013990000131600000417CORREGIMIENTO ALTAVISTA       
010019910ANTIOQUIA   MEDELLIN                      IE FE Y ALEGRIA EL LIMONAR              0000016300000154200000518CORR.  SAN ANTONIO DE PRADO   
010019917ANTIOQUIA   MEDELLIN                      IE HECTOR ROGELIO MONTOYA               0000002170000018500000119CORREGIMIENTO PALMITAS        
010019933ANTIOQUIA   MEDELLIN                      CASA DE GOBIERNO SANTA ELENA            0000005970000063500000221CORREGIMIENTO SANTA ELENA     
0100199A2ANTIOQUIA   MEDELLIN                      I.E.MANUEL DE J.BETANCUR                0000029730000286600000818CORR.  SAN ANTONIO DE PRADO   
0100199A3ANTIOQUIA   MEDELLIN                      IE MONSEÑOR VICTOR WIEDEMANN            0000005560000048600000218CORR.  SAN ANTONIO DE PRADO   
0100199A4ANTIOQUIA   MEDELLIN                      CENTRO INTEGRAL COMUNITARIO             0000018380000177800000518CORR.  SAN ANTONIO DE PRADO   
0100199B1ANTIOQUIA   MEDELLIN                      IE SAN CRISTOBAL                        0000019260000192100000620CORREGIMIENTO SAN CRISTOBAL   
0100199B2ANTIOQUIA   MEDELLIN                      PARQUE BIBLIOTECA FERNANDO BOTERO       0000026870000270100000820CORREGIMIENTO SAN CRISTOBAL   
0100199B3ANTIOQUIA   MEDELLIN                      IE LUSITANIA                            0000012490000108600000420CORREGIMIENTO SAN CRISTOBAL   
0100199B4ANTIOQUIA   MEDELLIN                      I.E. PRESBITERO JUAN J. ESCOBAR         0000006890000062900000220CORREGIMIENTO SAN CRISTOBAL   
0100199B5ANTIOQUIA   MEDELLIN                      IE LOMA HERMOSA                         0000002620000022200000120CORREGIMIENTO SAN CRISTOBAL   
010040000ANTIOQUIA   ABEJORRAL                     PUESTO CABECERA MUNICIPAL               00000212000002328000006                                
010070000ANTIOQUIA   ABRIAQUI                      PUESTO CABECERA MUNICIPAL               00000016500000190000001                                
010079905ANTIOQUIA   ABRIAQUI                      LA ANTIGUA                              00000003700000045000001                                
010100000ANTIOQUIA   ALEJANDRIA                    PUESTO CABECERA MUNICIPAL               00000054200000616000002                                
010130101ANTIOQUIA   AMAGA                         E.U. ALEJANDRO TORO                     00000100400001006000003                                
010130102ANTIOQUIA   AMAGA                         I.E. NORMAL SUPERIOR AMAGA              00000036200000347000001                                
010130202ANTIOQUIA   AMAGA                         COLISEO CTO JUAN MONTOYA CORREA         00000184200001820000005                                
010139801ANTIOQUIA   AMAGA                         CARCEL MUNICIPAL                        00000000000000002000001                                
010139905ANTIOQUIA   AMAGA                         LA CLARITA                              00000026900000245000001                                
010160001ANTIOQUIA   AMALFI                        IE EDUARDO FERNANDEZ BOTERO             00000314600003178000009                                
010169801ANTIOQUIA   AMALFI                        CARCEL MUNICIPAL                        00000000000000011000001                                
010169910ANTIOQUIA   AMALFI                        PORTACHUELO                             00000010900000144000001                                
010190101ANTIOQUIA   ANDES                         COLISEO PEDRO ANTONIO RPO ESCO          00000087800000962000003                                
010190102ANTIOQUIA   ANDES                         COL SAN JUAN DE LOS ANDES               00000056900000600000002                                
010190103ANTIOQUIA   ANDES                         CERUR LA AGUADA                         00000032200000294000001                                
010190201ANTIOQUIA   ANDES                         COL MARCO FIDEL SUAREZ                  00000097400001114000003                                
010190202ANTIOQUIA   ANDES                         CENTRO DE BIENESTAR SOCIAL              00000098800001065000003                                
010190203ANTIOQUIA   ANDES                         PLACA POLIDEPORTIVA                     00000119300001289000004                                
010199801ANTIOQUIA   ANDES                         CARCEL                                  00000000000000019000001                                
010199913ANTIOQUIA   ANDES                         SANTA RITA                              00000035400000421000002                                
010199917ANTIOQUIA   ANDES                         TAPARTO                                 00000038900000396000002                                
010220000ANTIOQUIA   ANGELOPOLIS                   PUESTO CABECERA MUNICIPAL               00000093200000970000003                                
010250000ANTIOQUIA   ANGOSTURA                     PUESTO CABECERA MUNICIPAL               00000163200001729000005                                
010280000ANTIOQUIA   ANORI                         PUESTO CABECERA MUNICIPAL               00000233200002562000007                                
010289801ANTIOQUIA   ANORI                         CARCEL MUNICIPAL                        00000000000000002000001                                
010310102ANTIOQUIA   ANTIOQUIA                     COLISEO HERNAN SEPULVEDA                00000058000000619000002                                
010310202ANTIOQUIA   ANTIOQUIA                     ESCUELA MARTINEZ PARDO                  00000293500002925000008                                
010319901ANTIOQUIA   ANTIOQUIA                     CATIVO                                  00000001300000011000001                                
010319904ANTIOQUIA   ANTIOQUIA                     EL PESCADO                              00000004300000056000001                                
010319905ANTIOQUIA   ANTIOQUIA                     LAURELES                                00000004400000037000001                                
010319907ANTIOQUIA   ANTIOQUIA                     LAS AZULES                              00000000900000017000001                                
010319909ANTIOQUIA   ANTIOQUIA                     TONUSCO ARRIBA                          00000003200000032000001                                
010319915ANTIOQUIA   ANTIOQUIA                     SABANAS                                 00000003400000037000001                                
010340000ANTIOQUIA   ANZA                          PUESTO CABECERA MUNICIPAL               00000073200000816000003                                
010349901ANTIOQUIA   ANZA                          GUINTAR                                 00000025400000279000001                                
010350101ANTIOQUIA   APARTADO                      I.E ALFONSO LOPEZ                       0000016140000160200000501COMUNA 1 BERNARDO JARAMILLO   
010350102ANTIOQUIA   APARTADO                      I.E. POLICARPA SALAVARRIETA             0000014550000136100000401COMUNA 1 BERNARDO JARAMILLO   
010350103ANTIOQUIA   APARTADO                      I. E. LA PAZ                            0000019910000187100000601COMUNA 1 BERNARDO JARAMILLO   
010350104ANTIOQUIA   APARTADO                      I.E. LA PAZ SEDE 20 DE ENERO            0000013830000140100000401COMUNA 1 BERNARDO JARAMILLO   
010350105ANTIOQUIA   APARTADO                      I. E. SAN FRANCISCO DE ASIS             0000011270000095000000302COMUNA 2 OCHO DE FEBRERO      
010350106ANTIOQUIA   APARTADO                      I. E. SAN PEDRO CLAVER                  0000019830000188000000602COMUNA 2 OCHO DE FEBRERO      
010350107ANTIOQUIA   APARTADO                      HOGAR INFANTIL LOS GIRASOLES            0000019500000178200000602COMUNA 2 OCHO DE FEBRERO      
010350108ANTIOQUIA   APARTADO                      I. E. SANTA MARIA LA ANTIGUA            0000007960000075100000302COMUNA 2 OCHO DE FEBRERO      
010350201ANTIOQUIA   APARTADO                      I.E. HERACLIO MENA PADILLA              0000007610000127500000303COMUNA 3 PUEBLO NUEVO         
010350202ANTIOQUIA   APARTADO                      COLEGIO ADVENTISTA                      0000015570000117400000403COMUNA 3 PUEBLO NUEVO         
010350203ANTIOQUIA   APARTADO                      I.E CADENA LAS PLAYAS                   0000008700000088500000303COMUNA 3 PUEBLO NUEVO         
010350204ANTIOQUIA   APARTADO                      I. E. CAMPO ALEGRE                      0000008990000090200000304COMUNA 4 JOSE JOAQUIN VELEZ   
010350205ANTIOQUIA   APARTADO                      IE MADRE LAURA                          0000009110000082800000304COMUNA 4 JOSE JOAQUIN VELEZ   
010350206ANTIOQUIA   APARTADO                      COLEGIO COOPERATIVO                     0000007020000074400000204COMUNA 4 JOSE JOAQUIN VELEZ   
010350207ANTIOQUIA   APARTADO                      IE JOSE JOAQUIN VELEZ                   0000013430000127900000404COMUNA 4 JOSE JOAQUIN VELEZ   
010350208ANTIOQUIA   APARTADO                      I.E JOSE CELESTINO MUTIS                0000017960000184800000504COMUNA 4 JOSE JOAQUIN VELEZ   
010359801ANTIOQUIA   APARTADO                      CARCEL                                  00000000100000016000001                                
010359925ANTIOQUIA   APARTADO                      SAN JOSE DE APARTADO                    0000002310000028100000107CORR SAN JOSE DE APARTADO     
010359950ANTIOQUIA   APARTADO                      EL REPOSO                               0000007020000054000000208CORREGIMIENTO EL REPOSO       
010370000ANTIOQUIA   ARBOLETES                     PUESTO CABECERA MUNICIPAL               00000311600002991000009                                
010379903ANTIOQUIA   ARBOLETES                     BUENOS AIRES                            00000008400000109000001                                
010379905ANTIOQUIA   ARBOLETES                     EL CARMELO                              00000013000000157000001                                
010379906ANTIOQUIA   ARBOLETES                     SANTAFE DE LAS PLATAS                   00000011900000126000001                                
010379908ANTIOQUIA   ARBOLETES                     LAS NARANJITAS                          00000007300000094000001                                
010379912ANTIOQUIA   ARBOLETES                     GUADUAL                                 00000015600000140000001                                
010379920ANTIOQUIA   ARBOLETES                     LA CANDELARIA                           00000020700000223000001                                
010379975ANTIOQUIA   ARBOLETES                     LA TRINIDAD                             00000022900000208000001                                
010379980ANTIOQUIA   ARBOLETES                     PAJILLAL                                00000013600000165000001                                
010390000ANTIOQUIA   ARGELIA                       PUESTO CABECERA MUNICIPAL               00000105600001152000003                                
010400000ANTIOQUIA   ARMENIA                       PUESTO CABECERA MUNICIPAL               00000050600000504000002                                
010430101ANTIOQUIA   BARBOSA                       PBRO. LUIS EDUARDO PEREZ MOLIN          00000110800001195000004                                
010430102ANTIOQUIA   BARBOSA                       INST. EDUC. MANUEL JOSE CAICED          00000239800002537000007                                
010430103ANTIOQUIA   BARBOSA                       IE LUIS EDUARDO ARIAS                   00000067200000726000002                                
010430201ANTIOQUIA   BARBOSA                       BIBLIOTECA ISOLDA ECHAVARRIA M          00000040200000692000002                                
010430202ANTIOQUIA   BARBOSA                       COL. COOPERATIVO SIMÓN BOLIVAR          00000087900000650000003                                
010430203ANTIOQUIA   BARBOSA                       C.A.S DIEGO FERNANDEZ BARBOSA           00000065300000630000002                                
010430204ANTIOQUIA   BARBOSA                       UNIDAD DEPORTIVA LOS BUCAROS            00000262000002637000008                                
010439801ANTIOQUIA   BARBOSA                       CARCEL                                  00000000000000001000001                                
010439901ANTIOQUIA   BARBOSA                       EL HATILLO                              0000005970000060300000201CORREGIMIENTO EL HATILLO      
010460000ANTIOQUIA   BELMIRA                       PUESTO CABECERA MUNICIPAL               00000069700000697000002                                
010490101ANTIOQUIA   BELLO                         IE BARRIO PARIS MEGACOLEGIO             0000006120000075000000201COMUNA 1 PARIS                
010490102ANTIOQUIA   BELLO                         I.E. ALBERTO DIAZ MUÑOZ                 0000005540000050300000201COMUNA 1 PARIS                
010490103ANTIOQUIA   BELLO                         I.E ALB. DIAZ MUÑOZ SECC.PRAD           0000008270000077700000301COMUNA 1 PARIS                
010490104ANTIOQUIA   BELLO                         CENTRO EDUCAT RAQUEL JARAMILLO          0000007030000067500000201COMUNA 1 PARIS                
010490105ANTIOQUIA   BELLO                         IE BARRIO PARIS                         0000007630000074800000301COMUNA 1 PARIS                
010490201ANTIOQUIA   BELLO                         I.E. ATANASIO GIRARDOT                  0000008560000906700001402COMUNA 2 MADERA               
010490202ANTIOQUIA   BELLO                         COLEGIO PARROQUIAL SAN FCO DE ASIS      0000015350000045500000302COMUNA 2 MADERA               
010490203ANTIOQUIA   BELLO                         IE SUAREZ DE LA PRESENTACION            0000084870000105100001302COMUNA 2 MADERA               
010490204ANTIOQUIA   BELLO                         COLEGIO SAN BUENAVENTURA                0000007500000075000000302COMUNA 2 MADERA               
010490205ANTIOQUIA   BELLO                         I.E. TOMAS CADAVID RESTREPO             0000006730000073500000203COMUNA 3 SANTA ANA            
010490301ANTIOQUIA   BELLO                         COLEGIO LA SALLE                        0000012460000126600000403COMUNA 3 SANTA ANA            
010490302ANTIOQUIA   BELLO                         I.E. FERNANDO VELEZ                     0000012470000108200000405COMUNA 5 LA CUMBRE            
010490303ANTIOQUIA   BELLO                         I.E. LA PRIMAVERA                       0000010310000090000000305COMUNA 5 LA CUMBRE            
010490304ANTIOQUIA   BELLO                         I.E. NAZARETH                           0000016280000147900000505COMUNA 5 LA CUMBRE            
010490305ANTIOQUIA   BELLO                         I.E. CARLOS PERES SEDE ROSALIA          0000006630000065800000205COMUNA 5 LA CUMBRE            
010490401ANTIOQUIA   BELLO                         INST. UNIVERSITARIA MARCO FIDEL SUAREZ  0000033570000336000001004COMUNA 4 SUAREZ               
010490402ANTIOQUIA   BELLO                         COL JESUS DE LA BUENA ESPERANZ          0000006550000063900000204COMUNA 4 SUAREZ               
010490403ANTIOQUIA   BELLO                         IE SAGRADO CORAZON                      0000010170000115400000304COMUNA 4 SUAREZ               
010490501ANTIOQUIA   BELLO                         IE JORGE ELIECER GAITAN                 0000011950000090100000304COMUNA 4 SUAREZ               
010490502ANTIOQUIA   BELLO                         I.E. SANTA CATALINA                     0000008470000075500000304COMUNA 4 SUAREZ               
010490503ANTIOQUIA   BELLO                         I.E. LA MILAGROSA                       0000008060000075100000304COMUNA 4 SUAREZ               
010490601ANTIOQUIA   BELLO                         I.E. HERNAN VILLA BAENA                 0000009910000086800000306COMUNA 6 BELLAVISTA           
010490602ANTIOQUIA   BELLO                         I.E. GILBERTO ECHEVERRI MEJIA           0000009800000092300000307COMUNA 7 ALTOS DE NIQUIA      
010490603ANTIOQUIA   BELLO                         I.E. CIAL ANTONIO ROLDAN                0000006050000056700000207COMUNA 7 ALTOS DE NIQUIA      
010490604ANTIOQUIA   BELLO                         IE VILLA DEL SOL SEC 1                  0000016680000152200000506COMUNA 6 BELLAVISTA           
010490605ANTIOQUIA   BELLO                         IE VILLA DEL SOL SEC 2                  0000004750000043800000206COMUNA 6 BELLAVISTA           
010490606ANTIOQUIA   BELLO                         IE JOSEFA CAMPOS                        0000010900000101600000307COMUNA 7 ALTOS DE NIQUIA      
010490701ANTIOQUIA   BELLO                         I.E. CONCEJO DE BELLO                   0000009260000083400000308COMUNA 8 NIQUIA               
010490702ANTIOQUIA   BELLO                         I.E FE Y ALEGRIA NUEVA GENERAC          0000006950000060300000208COMUNA 8 NIQUIA               
010490703ANTIOQUIA   BELLO                         COL NUESTRA SEÑORA DE CHIQUINQ          0000009060000083900000308COMUNA 8 NIQUIA               
010490704ANTIOQUIA   BELLO                         BETSABE ESPINAL                         0000011140000120100000408COMUNA 8 NIQUIA               
010490705ANTIOQUIA   BELLO                         I.E. NAVARRA                            0000003250000030100000109COMUNA 9 GUASIMALITO          
010490706ANTIOQUIA   BELLO                         IE NAVARRA SD EL TREBOL                 0000004700000046700000209COMUNA 9 GUASIMALITO          
010490801ANTIOQUIA   BELLO                         I.E. LAS VEGAS                          0000005690000052600000210COMUNA 10 FONTIDUEÑO          
010490802ANTIOQUIA   BELLO                         I.E FONTIDUEÑO JAIME ARANGO R           0000008240000076500000310COMUNA 10 FONTIDUEÑO          
010490803ANTIOQUIA   BELLO                         I.E FEDERICO SIERRA ARANGO              0000010400000087300000311COMUNA 11 ZAMORA              
010490804ANTIOQUIA   BELLO                         I.E. LA GABRIELA                        0000010210000089700000311COMUNA 11 ZAMORA              
010490805ANTIOQUIA   BELLO                         IE ZAMORA CENTENARIO                    0000011740000113400000411COMUNA 11 ZAMORA              
010499701ANTIOQUIA   BELLO                         ESCUELA DE TRABAJO SAN JOSÉ             00000000100000012000001                                
010499801ANTIOQUIA   BELLO                         CARCEL NACIONAL DE BELLAVISTA           00000000600000009000001                                
010499980ANTIOQUIA   BELLO                         SAN FELIX                               0000001730000015500000112COMUNA 12 SAN FELIX           
010520000ANTIOQUIA   BETANIA                       PUESTO CABECERA MUNICIPAL               00000109000001207000004                                
010550001ANTIOQUIA   BETULIA                       COLISEO MARIO GIL                       00000217600002355000007                                
010580101ANTIOQUIA   BOLIVAR                       I.EDU. SAN JOSE DEL CITARA              00000056200000547000002                                
010580102ANTIOQUIA   BOLIVAR                       COLISEO CUBIERTO                        00000151800001597000005                                
010580201ANTIOQUIA   BOLIVAR                       I.EDUCATIVA JOSE MARIA HERRAN           00000049900000745000002                                
010580202ANTIOQUIA   BOLIVAR                       I.E.MARIA AUXILIADORA                   00000103900000877000003                                
010589801ANTIOQUIA   BOLIVAR                       CARCEL                                  00000000000000004000001                                
010589901ANTIOQUIA   BOLIVAR                       ALFONSO LOPEZ                           00000008200000098000001                                
010589908ANTIOQUIA   BOLIVAR                       FARALLONES                              00000011100000099000001                                
010610000ANTIOQUIA   BURITICA                      PUESTO CABECERA MUNICIPAL               00000099800001044000003                                
010619901ANTIOQUIA   BURITICA                      URARCO                                  00000001100000022000001                                
010619905ANTIOQUIA   BURITICA                      TABACAL                                 00000014400000177000001                                
010620000ANTIOQUIA   BRICEÑO                       PUESTO CABECERA MUNICIPAL               00000102300001156000003                                
010629950ANTIOQUIA   BRICEÑO                       LAS AURAS                               00000004700000042000001                                
010640000ANTIOQUIA   CACERES                       PUESTO CABECERA MUNICIPAL               00000239000002624000007                                
010649901ANTIOQUIA   CACERES                       GUARUMO                                 00000030500000326000001                                
010649905ANTIOQUIA   CACERES                       EL JARDIN                               00000065100000559000002                                
010649907ANTIOQUIA   CACERES                       MANIZALES                               00000004500000058000001                                
010649913ANTIOQUIA   CACERES                       PUERTO BELGICA                          00000018800000178000001                                
010649929ANTIOQUIA   CACERES                       PIAMONTE                                00000013800000148000001                                
010670000ANTIOQUIA   CAICEDO                       PUESTO CABECERA MUNICIPAL               00000117800001302000004                                
010700101ANTIOQUIA   CALDAS                        ESC. SANTA MARIA GORETTI                00000073800000741000002                                
010700102ANTIOQUIA   CALDAS                        LICEO JOSE MARIA BERNAL                 00000179600001823000005                                
010700103ANTIOQUIA   CALDAS                        I.E.GABRIEL ECHAVARRIA                  00000200600002399000006                                
010700104ANTIOQUIA   CALDAS                        I.E. JOAQUIN ARISTIZABAL                00000039400000408000002                                
010700105ANTIOQUIA   CALDAS                        CENTRO INTEGRACION CIUDADANA            00000048100000464000002                                
010700201ANTIOQUIA   CALDAS                        ESC. FEDERICO ANGEL                     00000039600001326000003                                
010700202ANTIOQUIA   CALDAS                        ESC. MARIA AUXILIADORA                  00000186000000349000003                                
010700203ANTIOQUIA   CALDAS                        I.E. SANTA INES                         00000053700000472000002                                
010700204ANTIOQUIA   CALDAS                        PARQUE HABITAT DEL SUR                  00000061900000986000003                                
010700205ANTIOQUIA   CALDAS                        IE PEDRO LUIS ALVAREZ C                 00000038200000343000001                                
010700206ANTIOQUIA   CALDAS                        COLISEO                                 00000195300002097000006                                
010730000ANTIOQUIA   CAMPAMENTO                    PUESTO CABECERA MUNICIPAL               00000120100001307000004                                
010760000ANTIOQUIA   CAÑASGORDAS                   PUESTO CABECERA MUNICIPAL               00000175200001704000005                                
010769905ANTIOQUIA   CAÑASGORDAS                   CESTILLAL                               00000015200000151000001                                
010769909ANTIOQUIA   CAÑASGORDAS                   JUNTAS DE URAMITA                       00000002900000036000001                                
010769913ANTIOQUIA   CAÑASGORDAS                   LA BALSA                                00000001200000008000001                                
010769922ANTIOQUIA   CAÑASGORDAS                   SAN PASCUAL                             00000010200000172000001                                
010780000ANTIOQUIA   CARACOLI                      PUESTO CABECERA MUNICIPAL               00000067700000744000002                                
010790000ANTIOQUIA   CARAMANTA                     PUESTO CABECERA MUNICIPAL               00000063000000710000002                                
010800101ANTIOQUIA   CAREPA                        INST. EDUC. JOSE MARIA MUÑOZ            00000042700000568000002                                
010800102ANTIOQUIA   CAREPA                        INST. EDUCATIVA COLOMBIA                00000086200000928000003                                
010800103ANTIOQUIA   CAREPA                        CREM CENTRO DE RECURSOS EDUCATIVOS      00000090800000923000003                                
010800104ANTIOQUIA   CAREPA                        IE LA CADENA                            00000058500000585000002                                
010800201ANTIOQUIA   CAREPA                        I.E. LICEO LUIS CARLOS GALAN S          00000058400000954000003                                
010800202ANTIOQUIA   CAREPA                        I.E. ACAIDANA                           00000179900001367000005                                
010800203ANTIOQUIA   CAREPA                        I.E. J.M.M SEDE SAN MARINO              00000152300001321000004                                
010800204ANTIOQUIA   CAREPA                        COLISEO CUBIERTO                        00000131100001449000004                                
010800205ANTIOQUIA   CAREPA                        PLACA POLIDEPORTIVA EL OASIS            00000078500000763000003                                
010809920ANTIOQUIA   CAREPA                        EL SILENCIO                             00000050900000635000002                                
010809930ANTIOQUIA   CAREPA                        PIEDRAS BLANCAS                         00000055500000611000002                                
010809970ANTIOQUIA   CAREPA                        ZUNGO EMBARCADERO                       00000053000000535000002                                
010820101ANTIOQUIA   CARMEN DE VIBORAL             COLISEO MUNICIPAL                       00000293700003026000008                                
010820102ANTIOQUIA   CARMEN DE VIBORAL             CENTRO DE CONVENCIONES                  00000118200001139000004                                
010820201ANTIOQUIA   CARMEN DE VIBORAL             POLIDEPORTIVO MUNICIPAL                 00000138800001403000004                                
010820202ANTIOQUIA   CARMEN DE VIBORAL             IE EL PROGRESO                          00000122800001135000004                                
010850000ANTIOQUIA   CAROLINA                      PUESTO CABECERA MUNICIPAL               00000043500000474000002                                
010880101ANTIOQUIA   CAUCASIA                      INSTITUCION EDUCATIVA SANTO DOMINGO     00000109700001257000004                                
010880102ANTIOQUIA   CAUCASIA                      IE SANTO DOMINGO NUEVA SANTA H          00000106600001051000003                                
010880103ANTIOQUIA   CAUCASIA                      I.E. LICEO CAUCASIA STA HELENA          00000067800000633000002                                
010880104ANTIOQUIA   CAUCASIA                      INSTITUCION EDUCATIVA LICEO CAUCASIA    00000068600000699000002                                
010880105ANTIOQUIA   CAUCASIA                      INSTITUCION EDUCATIVA CONCEJO MUNICIPAL 00000079300000948000003                                
010880106ANTIOQUIA   CAUCASIA                      I.E. STA TERESITA LOMA FRESCA           00000076100000758000003                                
010880107ANTIOQUIA   CAUCASIA                      I.E. STA TERESITA CENTRO                00000112700001173000004                                
010880108ANTIOQUIA   CAUCASIA                      I.E.ANTIOQUIA LA GRANDE                 00000034700000403000002                                
010880201ANTIOQUIA   CAUCASIA                      I.E. LA MISERICORDIA SN RAFAEL          00000086600001131000003                                
010880202ANTIOQUIA   CAUCASIA                      COL MIL EL TESORO DEL SABER             00000149700001106000004                                
010880203ANTIOQUIA   CAUCASIA                      I.E. LA MISERICORDIA PPAL               00000074800000690000002                                
010880204ANTIOQUIA   CAUCASIA                      INST.EDUC.MARCO FIDEL SUAREZ            00000109000001040000003                                
010880205ANTIOQUIA   CAUCASIA                      I.E. DIVINO NIÑO PRINCIPAL              00000087200000859000003                                
010880206ANTIOQUIA   CAUCASIA                      I.E. DIVINO NIÑO SEC CARACOLI           00000123800001083000004                                
010880207ANTIOQUIA   CAUCASIA                      I.E. DIVINO NIÑO SEDE SAN JOSE          00000059200000534000002                                
010880208ANTIOQUIA   CAUCASIA                      INSTITUCION EDUCATIVA LAS MALVINAS      00000089300000866000003                                
010889801ANTIOQUIA   CAUCASIA                      CARCEL                                  00000000000000002000001                                
010910000ANTIOQUIA   CISNEROS                      PUESTO CABECERA MUNICIPAL               00000185900001952000006                                
010940000ANTIOQUIA   COCORNA                       PUESTO CABECERA MUNICIPAL               00000191300001917000006                                
010970000ANTIOQUIA   CONCEPCION                    PUESTO CABECERA MUNICIPAL               00000046400000520000002                                
011000000ANTIOQUIA   CONCORDIA                     PUESTO CABECERA MUNICIPAL               00000234700002426000007                                
011009901ANTIOQUIA   CONCORDIA                     EL SOCORRO                              00000006400000064000001                                
011009905ANTIOQUIA   CONCORDIA                     MORELIA                                 00000006400000064000001                                
011009907ANTIOQUIA   CONCORDIA                     MORITOS                                 00000002000000019000001                                
011030101ANTIOQUIA   COPACABANA                    IE GABRIELA MISTRAL                     00000061900000730000002                                
011030102ANTIOQUIA   COPACABANA                    IE PRESBITERO B. MONTOYA                00000074200000631000002                                
011030103ANTIOQUIA   COPACABANA                    COL COOP JUAN DEL CORRAL                00000228800000900000005                                
011030104ANTIOQUIA   COPACABANA                    IE VILLANUEVA                           00000072500002570000005                                
011030105ANTIOQUIA   COPACABANA                    CASA DE LA CULTURA                      00000049000000470000002                                
011030201ANTIOQUIA   COPACABANA                    I.E ASUNCION PRIMARIA                   00000028300000691000002                                
011030202ANTIOQUIA   COPACABANA                    COL JOSE MIGUEL RESTREPO                00000205800001036000005                                
011030203ANTIOQUIA   COPACABANA                    IE CAMILO TORRES                        00000092400000900000003                                
011030204ANTIOQUIA   COPACABANA                    IE ASUNCION SECUNDARIA                  00000052300001264000003                                
011030301ANTIOQUIA   COPACABANA                    CTRO EDUC. SANTA CLARA                  00000115000001213000004                                
011030302ANTIOQUIA   COPACABANA                    LICEO SAN LUIS GONZAGA                  00000058100000540000002                                
011030303ANTIOQUIA   COPACABANA                    IE LA TRINIDAD                          00000267700003047000008                                
011030304ANTIOQUIA   COPACABANA                    ESC. URB. LA MISERICORDIA               00000058300000602000002                                
011060101ANTIOQUIA   CHIGORODO                     ESC. SIMON BOLIVAR                      00000219400002641000007                                
011060102ANTIOQUIA   CHIGORODO                     ESC. BRISAS DEL RIO                     00000188000001824000005                                
011060201ANTIOQUIA   CHIGORODO                     INSTITUCION EDUCATIVA CHIGORODO         00000258500002577000007                                
011060202ANTIOQUIA   CHIGORODO                     LICEO MUNICIPAL                         00000424800003800000011                                
011090001ANTIOQUIA   DABEIBA                       COLISEO MUN JUAN ENRIQUE DOMICO         00000357700003711000010                                
011120000ANTIOQUIA   DON MATIAS                    PUESTO CABECERA MUNICIPAL               00000283300002793000008                                
011150000ANTIOQUIA   EBEJICO                       PUESTO CABECERA MUNICIPAL               00000104100001141000003                                
011159905ANTIOQUIA   EBEJICO                       BRASIL                                  0000001210000011800000101CORREGIMIENTO BRASIL          
011159909ANTIOQUIA   EBEJICO                       LA CLARA                                0000000400000004700000103CORREGIMIENTO LA CLARA        
011159925ANTIOQUIA   EBEJICO                       SEVILLA                                 0000002470000025900000104CORREGIMIENTO SEVILLA         
011170101ANTIOQUIA   EL BAGRE                      LICEO EL BAGRE                          00000214500002267000006                                
011170102ANTIOQUIA   EL BAGRE                      COLEGIO LA ESMERALDA                    00000185800001816000005                                
011170201ANTIOQUIA   EL BAGRE                      ESCUELA PORTUGAL                        00000130300001385000004                                
011170202ANTIOQUIA   EL BAGRE                      COLEGIO 20 DE JULIO                     00000263000002351000007                                
011179801ANTIOQUIA   EL BAGRE                      CARCEL MUNICIPAL                        00000000000000001000001                                
011179960ANTIOQUIA   EL BAGRE                      PUERTO CLAVER                           00000064200000691000002                                
011179965ANTIOQUIA   EL BAGRE                      PUERTO LOPEZ                            00000039100000408000002                                
011180000ANTIOQUIA   ENTRERRIOS                    PUESTO CABECERA MUNICIPAL               00000187700002109000006                                
011210101ANTIOQUIA   ENVIGADO                      COL LA SALLE DE ENVIGADO                00000226100002370000007                                
011210102ANTIOQUIA   ENVIGADO                      COL UNID EDUC SAN MARCOS                00000066200000679000002                                
011210103ANTIOQUIA   ENVIGADO                      CTRO DE ENCUENTRO CIUDADANO SAN MARCOS  00000128500001306000004                                
011210201ANTIOQUIA   ENVIGADO                      IE MARCELIANO VELEZ                     00000107500001988000005                                
011210202ANTIOQUIA   ENVIGADO                      LICEO FRANCISCO RESTREPO MOLINA         00000217100005356000011                                
011210203ANTIOQUIA   ENVIGADO                      CENTRO VIDA ATARDECER                   00000089700001000000003                                
011210301ANTIOQUIA   ENVIGADO                      IE SAN VICENTE DE PAUL                  00000123200000939000003                                
011210302ANTIOQUIA   ENVIGADO                      IE DARIO DE BEDOUT                      00000532800001424000010                                
011210303ANTIOQUIA   ENVIGADO                      IE MARIA PAUSSEPIN                      00000155000001622000005                                
011210401ANTIOQUIA   ENVIGADO                      ESCUELA PIO XII                         00000109000001038000003                                
011210402ANTIOQUIA   ENVIGADO                      ESC. SUP TECN. DE ARTES DEBORA ARANGO   00000367400000951000007                                
011210403ANTIOQUIA   ENVIGADO                      ESC FERNANDO GONZALEZ                   00000074800000702000002                                
011210404ANTIOQUIA   ENVIGADO                      IE MANUEL URIBE ANGEL (MUA)             00000141500004163000008                                
011210501ANTIOQUIA   ENVIGADO                      POLIDEPORTIVO SUR DE ENVIGADO           00000114700001184000004                                
011210502ANTIOQUIA   ENVIGADO                      URB. MULTIFAMILIAR  SEÑORIAL            00000140600001503000004                                
011210503ANTIOQUIA   ENVIGADO                      IE LA PAZ                               00000058500000572000002                                
011210504ANTIOQUIA   ENVIGADO                      IE LETICIA ARANGO DE AVENDAÑO           00000190900001808000005                                
011210505ANTIOQUIA   ENVIGADO                      ESC. JHON F KENNEDY                     00000100000001113000003                                
011210601ANTIOQUIA   ENVIGADO                      IE COMERCIAL DE ENVIGADO                00000124500001190000004                                
011210602ANTIOQUIA   ENVIGADO                      INST UNIVERSITARIA ENVIGADO             00000151600001552000005                                
011210603ANTIOQUIA   ENVIGADO                      IE EL SALADO                            00000091700000981000003                                
011210604ANTIOQUIA   ENVIGADO                      COL CUMBRES                             00000235600002580000007                                
011219801ANTIOQUIA   ENVIGADO                      CARCEL MUNICIPAL DE ENVIGADO            00000000000000002000001                                
011219901ANTIOQUIA   ENVIGADO                      LAS PALMAS CENTRO DE SALUD              00000079800000849000003                                
011240001ANTIOQUIA   FREDONIA                      ESC NORMAL SUPERIOR MARIANO OSPINA SEC P00000217200002328000007                                
011249801ANTIOQUIA   FREDONIA                      CARCEL                                  00000000100000003000001                                
011270000ANTIOQUIA   FRONTINO                      PUESTO CABECERA MUNICIPAL               00000254500002724000008                                
011279913ANTIOQUIA   FRONTINO                      MURRI                                   00000038800000415000002                                
011279921ANTIOQUIA   FRONTINO                      NUTIBARA                                00000022600000257000001                                
011300000ANTIOQUIA   GIRALDO                       PUESTO CABECERA MUNICIPAL               00000073000000724000002                                
011330101ANTIOQUIA   GIRARDOTA                     NTRA. SRA. DE LA PRESENTACION           00000209100002196000006                                
011330102ANTIOQUIA   GIRARDOTA                     ESCUELA COLOMBIA                        00000241100002487000007                                
011330201ANTIOQUIA   GIRARDOTA                     ATANASIO GIRARDOT ESC LA NUEVA          00000107400002095000005                                
011330202ANTIOQUIA   GIRARDOTA                     COL JUAN BERNARDONE                     00000265600001680000006                                
011330203ANTIOQUIA   GIRARDOTA                     IE EMILIANO GARCIA                      00000421100004782000013                                
011339910ANTIOQUIA   GIRARDOTA                     CABILDO                                 00000039600000420000002                                
011339920ANTIOQUIA   GIRARDOTA                     LA MANGA ARRIBA                         00000027500000319000001                                
011339980ANTIOQUIA   GIRARDOTA                     SAN ANDRES                              00000060200000612000002                                
011360000ANTIOQUIA   GOMEZ PLATA                   PUESTO CABECERA MUNICIPAL               00000120000001431000004                                
011390000ANTIOQUIA   GRANADA                       PUESTO CABECERA MUNICIPAL               00000140200001496000004                                
011399901ANTIOQUIA   GRANADA                       SANTA ANA                               0000000600000007800000101CORREGIMIENTO SANTA ANA       
011399940ANTIOQUIA   GRANADA                       LOS MEDIOS                              00000003200000031000001                                
011400000ANTIOQUIA   GUADALUPE                     PUESTO CABECERA MUNICIPAL               00000090600000953000003                                
011420101ANTIOQUIA   GUARNE                        INST. EDUCATIVA SANTO TOMAS             00000134900001739000005                                
011420102ANTIOQUIA   GUARNE                        COLISEO SANTO TOMAS                     00000059400000663000002                                
011420103ANTIOQUIA   GUARNE                        INST. EDUCATIVA EL ZANGO                00000075300000752000003                                
011420201ANTIOQUIA   GUARNE                        I.E. LA INMACULADA CONCEPCION           00000120500001309000004                                
011420202ANTIOQUIA   GUARNE                        COLEGIO SAN ANTONIO                     00000099300001011000003                                
011420203ANTIOQUIA   GUARNE                        I.E. CHAPARRAL                          00000045900000515000002                                
011450000ANTIOQUIA   GUATAPE                       PUESTO CABECERA MUNICIPAL               00000098000001022000003                                
011480000ANTIOQUIA   HELICONIA                     PUESTO CABECERA MUNICIPAL               00000063500000743000002                                
011500000ANTIOQUIA   HISPANIA                      PUESTO CABECERA MUNICIPAL               00000070200000810000003                                
011510101ANTIOQUIA   ITAGUI                        IDEM DIEGO ECHAVARRIA MISA              0000011260000128800000401COMUNA 1                      
011510102ANTIOQUIA   ITAGUI                        I.E. JUAN N. CADAVID                    0000009510000098100000301COMUNA 1                      
011510103ANTIOQUIA   ITAGUI                        COLEGIO EL ROSARIO                      0000010100000091500000301COMUNA 1                      
011510201ANTIOQUIA   ITAGUI                        ESC. ANTONIO JOSE DE SUCRE              0000012670000838300001301COMUNA 1                      
011510202ANTIOQUIA   ITAGUI                        IE AVELINO SALDARRIAGA GAVIRIA          0000082780000126500001301COMUNA 1                      
011510301ANTIOQUIA   ITAGUI                        I.E. ISOLDA ECHAVARRIA                  0000018280000181700000502COMUNA 2                      
011510302ANTIOQUIA   ITAGUI                        ESCUELA JOHN F. KENNEDY                 0000012630000145800000402COMUNA 2                      
011510303ANTIOQUIA   ITAGUI                        ESCUELA FELIPE DE RESTREPO              0000011800000097700000302COMUNA 2                      
011510304ANTIOQUIA   ITAGUI                        I.E. LUIS CARLOS GALAN                  0000010880000106700000303COMUNA 3                      
011510401ANTIOQUIA   ITAGUI                        ESCUELA SAN FRANCISCO                   0000014320000134900000403COMUNA 3                      
011510402ANTIOQUIA   ITAGUI                        ESCUELA ESTEBAN OCHOA                   0000013110000121800000403COMUNA 3                      
011510501ANTIOQUIA   ITAGUI                        ESCUELA SIMON BOLIVAR                   0000010100000100100000304COMUNA 4                      
011510502ANTIOQUIA   ITAGUI                        I.E. ENRIQUE VELEZ ESCOBAR              0000010540000101500000304COMUNA 4                      
011510503ANTIOQUIA   ITAGUI                        ESC. MARCELIANA SALDARRIAGA             0000014590000138100000404COMUNA 4                      
011510601ANTIOQUIA   ITAGUI                        ESCUELA ARNULFO FLOREZ                  0000009130000090900000304COMUNA 4                      
011510602ANTIOQUIA   ITAGUI                        I.E. PEDRO ESTRADA                      0000009880000101800000304COMUNA 4                      
011510603ANTIOQUIA   ITAGUI                        I.E. BENEDIKTA ZUR NIEDEN               0000011560000110100000404COMUNA 4                      
011510604ANTIOQUIA   ITAGUI                        I.E. ORESTES SINDICCE                   0000011230000114500000404COMUNA 4                      
011510701ANTIOQUIA   ITAGUI                        ESCUELA LOMA LINDA                      0000018170000184400000505COMUNA 5                      
011510702ANTIOQUIA   ITAGUI                        ESCUELA MARIA BERNAL                    0000005820000058000000205COMUNA 5                      
011510703ANTIOQUIA   ITAGUI                        I.E. MARIA JESUS MEJIA SEDE 2           0000011560000118600000405COMUNA 5                      
011510704ANTIOQUIA   ITAGUI                        I.E. CARLOS ENRIQUE CORTES              0000011020000114400000405COMUNA 5                      
011510801ANTIOQUIA   ITAGUI                        ESCUELA EL ROSARIO                      0000014980000137000000406COMUNA 6                      
011510802ANTIOQUIA   ITAGUI                        ESCUELA LA UNION                        0000012970000128900000406COMUNA 6                      
011519801ANTIOQUIA   ITAGUI                        CARCEL DISTRITO NACIONAL                00000000200000011000001                                
011519802ANTIOQUIA   ITAGUI                        CARCEL YARUMITO                         00000000200000003000001                                
0115199A1ANTIOQUIA   ITAGUI                        EL MANZANILLO                           0000016500000176600000507CORREGIMIENTO EL MANZANILLO   
0115199B1ANTIOQUIA   ITAGUI                        IE MARIA JOSEFA ESCOBAR                 0000004410000037600000207CORREGIMIENTO EL MANZANILLO   
011540000ANTIOQUIA   ITUANGO                       PUESTO CABECERA MUNICIPAL               00000271000002896000008                                
011549801ANTIOQUIA   ITUANGO                       CARCEL                                  00000000000000003000001                                
011549913ANTIOQUIA   ITUANGO                       LA GRANJA                               00000020300000227000001                                
011549918ANTIOQUIA   ITUANGO                       QUEBRADA DEL MEDIO                      00000007300000105000001                                
011549921ANTIOQUIA   ITUANGO                       SANTA RITA DE ITUANGO                   0000003010000033700000101CORR SANTA RITA DE SINITAVE   
011570000ANTIOQUIA   JARDIN                        PUESTO CABECERA MUNICIPAL               00000172400001974000005                                
011600000ANTIOQUIA   JERICO                        PUESTO CABECERA MUNICIPAL               00000152800001543000005                                
011609801ANTIOQUIA   JERICO                        CARCEL                                  00000000000000003000001                                
011630101ANTIOQUIA   LA CEJA                       ESC. MARIA JOSEFA MARULANDA             00000118800001163000004                                
011630102ANTIOQUIA   LA CEJA                       CTRO. EDUCATIVO LA PAZ                  00000075400000764000003                                
011630103ANTIOQUIA   LA CEJA                       PARQUE BIBLIOTECA EL PARAISO            00000114500001151000004                                
011630104ANTIOQUIA   LA CEJA                       I.E.LA PAZ SEDE 2                       00000134700001375000004                                
011630201ANTIOQUIA   LA CEJA                       ESC JUSTO PASTOR MEJIA                  00000072900000795000003                                
011630202ANTIOQUIA   LA CEJA                       ESC. ALFONSO URIBE JARAMILLO            00000079800000726000003                                
011630203ANTIOQUIA   LA CEJA                       CENTRO DIA GERONTOLOGICO                00000060900000634000002                                
011630204ANTIOQUIA   LA CEJA                       IE BERNARDO URIBE LONDOÑO SD 1          00000125200001198000004                                
011639801ANTIOQUIA   LA CEJA                       CARCEL                                  00000000100000001000001                                
011639947ANTIOQUIA   LA CEJA                       SAN JOSE                                0000001920000021400000101CORREGIMIENTO SAN JOSE        
011660101ANTIOQUIA   LA ESTRELLA                   IE SECCION JAIME ARANGO VELASQUEZ       00000044300000544000002                                
011660102ANTIOQUIA   LA ESTRELLA                   CASA PARA LA EDUCACION                  00000039300000421000002                                
011660103ANTIOQUIA   LA ESTRELLA                   SECC RAFAEL POMBO                       00000091900000879000003                                
011660104ANTIOQUIA   LA ESTRELLA                   COL. DIVINO SALVADOR                    00000156000001519000005                                
011660105ANTIOQUIA   LA ESTRELLA                   SEC.BTO ANA EVA ESCOBAR                 00000080200001005000003                                
011660201ANTIOQUIA   LA ESTRELLA                   CASA DE LA CULTURA                      00000107800001574000004                                
011660202ANTIOQUIA   LA ESTRELLA                   INST. EDUCACION CONCEJO MPAL            00000284200002648000008                                
011660203ANTIOQUIA   LA ESTRELLA                   IE SECCION TULIO OSPINA                 00000145300001478000004                                
011660204ANTIOQUIA   LA ESTRELLA                   S LA INMACULADA FE Y ALEGRIA            00000296000002916000008                                
011669801ANTIOQUIA   LA ESTRELLA                   CARCEL                                  00000000000000002000001                                
011680000ANTIOQUIA   PUERTO NARE-LA MAGDALENA      PUESTO CABECERA MUNICIPAL               00000122200001311000004                                
011689905ANTIOQUIA   PUERTO NARE-LA MAGDALENA      LA SIERRA                               00000041100000424000002                                
011690001ANTIOQUIA   LA UNION                      COLISEO ERNESTO RIOS ARIAS              00000315100003365000009                                
011699901ANTIOQUIA   LA UNION                      MESOPOTAMIA                             0000000420000004400000101CORREGIMIENTO MESOPOTAMIA     
011700000ANTIOQUIA   LA PINTADA                    PUESTO CABECERA MUNICIPAL               00000117700001208000004                                
011720000ANTIOQUIA   LIBORINA                      PUESTO CABECERA MUNICIPAL               00000115500001278000004                                
011729913ANTIOQUIA   LIBORINA                      SAN DIEGO                               00000027400000304000001                                
011750000ANTIOQUIA   MACEO                         PUESTO CABECERA MUNICIPAL               00000120300001290000004                                
011780101ANTIOQUIA   MARINILLA                     COLISEO MUNICIPAL                       00000188700002185000006                                
011780102ANTIOQUIA   MARINILLA                     ESC. NORMAL SUP RAFAEL M. GIR           00000130300001155000004                                
011780103ANTIOQUIA   MARINILLA                     IE TEC INDUSTRIAL SIMONA DUQUE SECUND   00000080800000859000003                                
011780201ANTIOQUIA   MARINILLA                     COLEGIO NACIONAL SAN JOSE               00000098700001520000004                                
011780202ANTIOQUIA   MARINILLA                     IE ROMAN GOMEZ SD PRIMARIA SABINA MUÑOZ 00000209000001698000006                                
011780301ANTIOQUIA   MARINILLA                     IE TECNICO INDUSTRIAL SIMONA DUQUE SD P 00000036400000371000001                                
011810000ANTIOQUIA   MONTEBELLO                    PUESTO CABECERA MUNICIPAL               00000073200000855000003                                
011840000ANTIOQUIA   MURINDO                       PUESTO CABECERA MUNICIPAL               00000070600000717000002                                
011870000ANTIOQUIA   MUTATA                        PUESTO CABECERA MUNICIPAL               00000327600003337000009                                
011879904ANTIOQUIA   MUTATA                        PAVARANDOGRANDE                         00000033200000336000001                                
011900000ANTIOQUIA   NARIÑO                        PUESTO CABECERA MUNICIPAL               00000119400001341000004                                
011909907ANTIOQUIA   NARIÑO                        PUERTO VENUS  SAMANA                    00000013200000156000001                                
011910000ANTIOQUIA   NECHI                         PUESTO CABECERA MUNICIPAL               00000401600004115000011                                
011920000ANTIOQUIA   NECOCLI                       PUESTO CABECERA MUNICIPAL               00000555700005425000015                                
011929902ANTIOQUIA   NECOCLI                       LAS CHANGAS                             00000043300000392000002                                
011929910ANTIOQUIA   NECOCLI                       EL MELLITO                              00000023500000234000001                                
011929912ANTIOQUIA   NECOCLI                       EL TOTUMO                               00000054200000470000002                                
011929915ANTIOQUIA   NECOCLI                       MELLO VILLAVICENCIO                     00000023800000226000001                                
011929923ANTIOQUIA   NECOCLI                       PUEBLO NUEVO                            00000060600000604000002                                
011930000ANTIOQUIA   OLAYA                         PUESTO CABECERA MUNICIPAL               00000004200000047000001                                
011939901ANTIOQUIA   OLAYA                         LLANADAS                                00000007600000069000001                                
011939903ANTIOQUIA   OLAYA                         EL PENCAL                               00000003600000031000001                                
011939905ANTIOQUIA   OLAYA                         SUCRE                                   00000007300000085000001                                
011960000ANTIOQUIA   PEÑOL                         PUESTO CABECERA MUNICIPAL               00000253900002636000007                                
011990000ANTIOQUIA   PEQUE                         PUESTO CABECERA MUNICIPAL               00000105600001148000003                                
012020000ANTIOQUIA   PUEBLORRICO                   PUESTO CABECERA MUNICIPAL               00000108800001155000004                                
012050101ANTIOQUIA   PUERTO BERRIO                 ESC. ENRIQUE OLAYA HERRERA              00000070900000895000003                                
012050102ANTIOQUIA   PUERTO BERRIO                 ESC. LA MILLA                           00000071700000729000002                                
012050103ANTIOQUIA   PUERTO BERRIO                 SENA                                    00000075100000849000003                                
012050104ANTIOQUIA   PUERTO BERRIO                 I.E. ALFONSO LOPEZ PUMAREJO             00000185800002001000006                                
012050201ANTIOQUIA   PUERTO BERRIO                 INSTITUTO LA INMACULADA                 00000089700001030000003                                
012050202ANTIOQUIA   PUERTO BERRIO                 ESC. LA ISLA                            00000073300000600000002                                
012050203ANTIOQUIA   PUERTO BERRIO                 I.E. BOMBONA                            00000063600000618000002                                
012059801ANTIOQUIA   PUERTO BERRIO                 CARCEL                                  00000000300000005000001                                
012060000ANTIOQUIA   PUERTO TRIUNFO                PUESTO CABECERA MUNICIPAL               00000177700001922000005                                
012069802ANTIOQUIA   PUERTO TRIUNFO                CENTRO PENITENCIARIO EL PESEBRE         00000000100000015000001                                
012069911ANTIOQUIA   PUERTO TRIUNFO                DORADAL                                 00000074100000722000002                                
012080002ANTIOQUIA   REMEDIOS                      PARQUE EDUC. ISABELITA TEJADA CUARTAS   00000334000003397000010                                
012089901ANTIOQUIA   REMEDIOS                      LA CRUZADA                              0000003510000029500000101CORREGIMIENTO LA CRUZADA      
012089903ANTIOQUIA   REMEDIOS                      CARRIZAL                                00000009400000100000001                                
012110001ANTIOQUIA   RETIRO                        COLISEO MUN CARLOS MAURO HOYOS          00000187400001985000006                                
012119970ANTIOQUIA   RETIRO                        IE LUIS EDUARDO POSADA                  00000044900000537000002                                
012140101ANTIOQUIA   RIONEGRO                      I.E. JULIO SANIN                        0000012700000152800000401COMUNA 1 LIBORIO MEJIA        
012140102ANTIOQUIA   RIONEGRO                      OFICINA VALORIZACION ALCALDIA           0000011410000106100000301COMUNA 1 LIBORIO MEJIA        
012140103ANTIOQUIA   RIONEGRO                      COLISEO RUBEN DARIO QUINTERO            0000012590000128800000401COMUNA 1 LIBORIO MEJIA        
012140104ANTIOQUIA   RIONEGRO                      ESC JUAN MANUEL GONZALEZ                0000008230000077700000301COMUNA 1 LIBORIO MEJIA        
012140201ANTIOQUIA   RIONEGRO                      ESCUELA UNIDA                           0000010830000139600000401COMUNA 1 LIBORIO MEJIA        
012140202ANTIOQUIA   RIONEGRO                      IE JOSEFINA MUÑOZ GONZALEZ SD BALDOMERO 0000011140000077800000301COMUNA 1 LIBORIO MEJIA        
012140203ANTIOQUIA   RIONEGRO                      COLISEO ALTO DEL MEDIO                  0000008230000083100000301COMUNA 1 LIBORIO MEJIA        
012140301ANTIOQUIA   RIONEGRO                      OFICINAS ADMINISTRACION MUNICIPAL       0000012920000135700000402COMUNA 2 SAN ANTONIO          
012140302ANTIOQUIA   RIONEGRO                      IT SANTIAGO DE ARMA                     0000011220000113700000402COMUNA 2 SAN ANTONIO          
012140303ANTIOQUIA   RIONEGRO                      IE SAN ANTONIO                          0000003220000035800000102COMUNA 2 SAN ANTONIO          
012140304ANTIOQUIA   RIONEGRO                      IE JOSEFINA MUÑOZ GONZALEZ SD CUATRO ESQ0000010810000152100000403COMUNA 3 MONS. ALFONSO URIBE J
012140305ANTIOQUIA   RIONEGRO                      ESC CARMELA BIANCHETTI                  0000011680000096100000303COMUNA 3 MONS. ALFONSO URIBE J
012140401ANTIOQUIA   RIONEGRO                      ESC EDUARDO URIBE BOTERO                0000008540000086300000304COMUNA 4 EL PORVENIR          
012140402ANTIOQUIA   RIONEGRO                      LIC CONSEJO MUNICIPAL                   0000015440000147100000504COMUNA 4 EL PORVENIR          
012140403ANTIOQUIA   RIONEGRO                      ESC PASCUALA MUÑOZ                      0000007260000069800000204COMUNA 4 EL PORVENIR          
012149801ANTIOQUIA   RIONEGRO                      CARCEL MUNICIPAL                        00000000100000006000001                                
0121499A1ANTIOQUIA   RIONEGRO                      CORREGIMIENTO DEL SUR                   0000006350000072400000205CORREGIMIENTO DEL SUR         
0121499B1ANTIOQUIA   RIONEGRO                      I E ANTONIO DONADO CAMACHO              0000002290000025200000106CTO JOSE MARIA CORDOVA M      
0121499B2ANTIOQUIA   RIONEGRO                      AUDITORIO AEROPUERTO CORR. J.M.C.       0000006310000077600000206CTO JOSE MARIA CORDOVA M      
0121499D2ANTIOQUIA   RIONEGRO                      IE ANA GOMEZ DE SIERRA                  0000005130000064400000208CTO NORTE NESTOR E. SANINT ALV
012170000ANTIOQUIA   SABANALARGA                   PUESTO CABECERA MUNICIPAL               00000125800001376000004                                
012180101ANTIOQUIA   SABANETA                      I.E. RAFAEL J. MEJIA                    00000305600003233000009                                
012180102ANTIOQUIA   SABANETA                      I.E. PRIMITIVO LEAL LA DOCTORA          00000146200001422000004                                
012180103ANTIOQUIA   SABANETA                      CTRO PARA EL ADULTO MAYOR CAITES        00000058100000549000002                                
012180104ANTIOQUIA   SABANETA                      I.E. PRESBITERO ANTONIO BAENA SALAZAR   00000071800000692000002                                
012180201ANTIOQUIA   SABANETA                      COL PADRE RAMON ARCILA R                00000039000000875000002                                
012180202ANTIOQUIA   SABANETA                      IE JOSE FELIX DE RESTREPO               00000086000000413000002                                
012180203ANTIOQUIA   SABANETA                      BIBLIOTECA MUNICIPAL JCMM               00000093100000882000003                                
012180204ANTIOQUIA   SABANETA                      CASA DE LA CULTURA LA BARQUEREÑA        00000039100000413000002                                
012180301ANTIOQUIA   SABANETA                      CTRO DE ATENCION 1RA INFANCIA CAIPI     00000125300002117000005                                
012180302ANTIOQUIA   SABANETA                      IE CONCEJO DE SABANETA JMCB             00000129800001050000004                                
012180303ANTIOQUIA   SABANETA                      IE MARIA MEDIADORA                      00000294900002481000008                                
012180304ANTIOQUIA   SABANETA                      PARQUE DE LOS 4 ELEMENTOS               00000056900000533000002                                
012180305ANTIOQUIA   SABANETA                      GIMNASIO CAMPESTRE LOS ALCAZARES        00000122500001263000004                                
012200000ANTIOQUIA   SALGAR                        PUESTO CABECERA MUNICIPAL               00000225300002229000007                                
012230000ANTIOQUIA   SAN ANDRES                    PUESTO CABECERA MUNICIPAL               00000102300001093000003                                
012260000ANTIOQUIA   SAN CARLOS                    PUESTO CABECERA MUNICIPAL               00000180200002029000006                                
012269901ANTIOQUIA   SAN CARLOS                    EL JORDAN                               00000015800000172000001                                
012269907ANTIOQUIA   SAN CARLOS                    SAMANA DEL NORTE                        00000003200000059000001                                
012269950ANTIOQUIA   SAN CARLOS                    PUERTO GARZA                            00000004400000047000001                                
012270000ANTIOQUIA   SAN FRANCISCO                 PUESTO CABECERA MUNICIPAL               00000070200000719000002                                
012279905ANTIOQUIA   SAN FRANCISCO                 AQUITANIA                               00000012200000112000001                                
012290000ANTIOQUIA   SAN JERONIMO                  PUESTO CABECERA MUNICIPAL               00000177700001843000005                                
012299913ANTIOQUIA   SAN JERONIMO                  LOS CEDROS                              00000006700000066000001                                
012300000ANTIOQUIA   SAN JOSE DE LA MONTAÑA        PUESTO CABECERA MUNICIPAL               00000063100000681000002                                
012310001ANTIOQUIA   SAN JUAN DE URABA             IE SAN JUAN DE URABA SD 1               00000315800003232000009                                
012319901ANTIOQUIA   SAN JUAN DE URABA             BELEN                                   00000027500000309000001                                
012319910ANTIOQUIA   SAN JUAN DE URABA             DAMAQUIEL                               00000050500000418000002                                
012319980ANTIOQUIA   SAN JUAN DE URABA             SAN JUANCITO                            00000011900000137000001                                
012319986ANTIOQUIA   SAN JUAN DE URABA             SIETE VUELTAS                           00000018100000233000001                                
012319991ANTIOQUIA   SAN JUAN DE URABA             UVEROS                                  00000030600000289000001                                
012320000ANTIOQUIA   SAN LUIS                      PUESTO CABECERA MUNICIPAL               00000171700001861000005                                
012329903ANTIOQUIA   SAN LUIS                      BUENOS AIRES                            00000003600000037000001                                
012329904ANTIOQUIA   SAN LUIS                      EL PRODIGIO                             00000007300000066000001                                
012329905ANTIOQUIA   SAN LUIS                      EL SILENCIO                             00000002600000027000001                                
012329915ANTIOQUIA   SAN LUIS                      MONTELORO                               00000018500000192000001                                
012329918ANTIOQUIA   SAN LUIS                      PLAYA LINDA                             00000002500000031000001                                
012329950ANTIOQUIA   SAN LUIS                      EL VERGEL                               00000005400000044000001                                
012329975ANTIOQUIA   SAN LUIS                      SAN PABLO                               00000001400000010000001                                
012350102ANTIOQUIA   SAN PEDRO                     I E PIO XII SEDE LA GABRIELA            00000441000004432000012                                
012370101ANTIOQUIA   SAN PEDRO DE URABA            I.E. SAN PEDRO DE URABA                 00000135200001524000004                                
012370102ANTIOQUIA   SAN PEDRO DE URABA            ESCUELA  URBANA  INTEGRADA  ZOILA LOPEZ 00000054400000554000002                                
012370201ANTIOQUIA   SAN PEDRO DE URABA            I.E. SAN PEDRO DE URABA SD POLICARPA  SA00000158000002410000006                                
012370202ANTIOQUIA   SAN PEDRO DE URABA            ESC. URB. INTEGRD HERNANDEZ CASTILLO    00000267400002041000007                                
012379925ANTIOQUIA   SAN PEDRO DE URABA            SANTA CATALINA                          00000022100000262000001                                
012380000ANTIOQUIA   SAN RAFAEL                    PUESTO CABECERA MUNICIPAL               00000193900002113000006                                
012410000ANTIOQUIA   SAN ROQUE                     PUESTO CABECERA MUNICIPAL               00000195000002109000006                                
012419905ANTIOQUIA   SAN ROQUE                     CRISTALES                               00000011700000153000001                                
012419909ANTIOQUIA   SAN ROQUE                     SAN JOSE DEL NUS                        00000013800000116000001                                
012440000ANTIOQUIA   SAN VICENTE                   PUESTO CABECERA MUNICIPAL               00000220600002488000007                                
012470101ANTIOQUIA   SANTA BARBARA                 I.E. MARIA AUXILIADORA                  00000055200000567000002                                
012470102ANTIOQUIA   SANTA BARBARA                 I.E. JESUS MARIA PAGOLA                 00000039700000474000002                                
012470201ANTIOQUIA   SANTA BARBARA                 I.E. MONSEÑOR EMILIO BOTERO             00000042600000522000002                                
012470202ANTIOQUIA   SANTA BARBARA                 COLISEO LUIS FERNANDO PATIÑO            00000157800001626000005                                
012479801ANTIOQUIA   SANTA BARBARA                 CARCEL                                  00000000000000006000001                                
012479901ANTIOQUIA   SANTA BARBARA                 DAMASCO                                 00000007100000074000001                                
012479913ANTIOQUIA   SANTA BARBARA                 VERSALLES                               00000012500000138000001                                
012500101ANTIOQUIA   SANTA ROSA DE OSOS            ESC. NORMAL SUPERIOR PEDRO JUSTO BERRIO 00000089100000857000003                                
012500102ANTIOQUIA   SANTA ROSA DE OSOS            PARQUE NEURONA EDUCATIVA                00000078400000747000003                                
012500201ANTIOQUIA   SANTA ROSA DE OSOS            COLISEO ANTONIO ROLDAN BETANCUR         00000123700001355000004                                
012500202ANTIOQUIA   SANTA ROSA DE OSOS            INSTITUTO NUESTRA SEÑORA DEL CARMEN     00000145700001305000004                                
012509801ANTIOQUIA   SANTA ROSA DE OSOS            CARCEL                                  00000000400000009000001                                
012509901ANTIOQUIA   SANTA ROSA DE OSOS            ARAGON                                  00000006800000063000001                                
